{
  "contractName": "TokenSale",
  "abi": [
    {
      "inputs": [
        {
          "internalType": "contract MyToken",
          "name": "_tokenContract",
          "type": "address"
        },
        {
          "internalType": "uint256",
          "name": "_tokenPrice",
          "type": "uint256"
        }
      ],
      "stateMutability": "nonpayable",
      "type": "constructor"
    },
    {
      "anonymous": false,
      "inputs": [
        {
          "indexed": false,
          "internalType": "address",
          "name": "_buyer",
          "type": "address"
        },
        {
          "indexed": false,
          "internalType": "uint256",
          "name": "_amount",
          "type": "uint256"
        }
      ],
      "name": "Sell",
      "type": "event"
    },
    {
      "inputs": [],
      "name": "owner",
      "outputs": [
        {
          "internalType": "address",
          "name": "",
          "type": "address"
        }
      ],
      "stateMutability": "view",
      "type": "function",
      "constant": true
    },
    {
      "inputs": [],
      "name": "tokenContract",
      "outputs": [
        {
          "internalType": "contract MyToken",
          "name": "",
          "type": "address"
        }
      ],
      "stateMutability": "view",
      "type": "function",
      "constant": true
    },
    {
      "inputs": [],
      "name": "tokenPrice",
      "outputs": [
        {
          "internalType": "uint256",
          "name": "",
          "type": "uint256"
        }
      ],
      "stateMutability": "view",
      "type": "function",
      "constant": true
    },
    {
      "inputs": [],
      "name": "tokensSold",
      "outputs": [
        {
          "internalType": "uint256",
          "name": "",
          "type": "uint256"
        }
      ],
      "stateMutability": "view",
      "type": "function",
      "constant": true
    },
    {
      "inputs": [
        {
          "internalType": "uint256",
          "name": "_numberOfTokens",
          "type": "uint256"
        }
      ],
      "name": "buyTokens",
      "outputs": [],
      "stateMutability": "payable",
      "type": "function",
      "payable": true
    },
    {
      "inputs": [],
      "name": "endSale",
      "outputs": [],
      "stateMutability": "nonpayable",
      "type": "function"
    }
  ],
  "bytecode": "0x60806040523480156200001157600080fd5b5060405162000d6638038062000d66833981810160405281019062000037919062000180565b336000806101000a81548173ffffffffffffffffffffffffffffffffffffffff021916908373ffffffffffffffffffffffffffffffffffffffff16021790555081600160006101000a81548173ffffffffffffffffffffffffffffffffffffffff021916908373ffffffffffffffffffffffffffffffffffffffff160217905550806002819055505050620001c7565b600080fd5b600073ffffffffffffffffffffffffffffffffffffffff82169050919050565b6000620000f982620000cc565b9050919050565b60006200010d82620000ec565b9050919050565b6200011f8162000100565b81146200012b57600080fd5b50565b6000815190506200013f8162000114565b92915050565b6000819050919050565b6200015a8162000145565b81146200016657600080fd5b50565b6000815190506200017a816200014f565b92915050565b600080604083850312156200019a5762000199620000c7565b5b6000620001aa858286016200012e565b9250506020620001bd8582860162000169565b9150509250929050565b610b8f80620001d76000396000f3fe6080604052600436106100555760003560e01c80633610724e1461005a578063380d831b14610076578063518ab2a81461008d57806355a373d6146100b85780637ff9b596146100e35780638da5cb5b1461010e575b600080fd5b610074600480360381019061006f91906106bc565b610139565b005b34801561008257600080fd5b5061008b61039a565b005b34801561009957600080fd5b506100a261062b565b6040516100af91906106f8565b60405180910390f35b3480156100c457600080fd5b506100cd610631565b6040516100da9190610792565b60405180910390f35b3480156100ef57600080fd5b506100f8610657565b60405161010591906106f8565b60405180910390f35b34801561011a57600080fd5b5061012361065d565b60405161013091906107ce565b60405180910390f35b600254816101479190610818565b3414610188576040517f08c379a000000000000000000000000000000000000000000000000000000000815260040161017f906108cf565b60405180910390fd5b80600160009054906101000a900473ffffffffffffffffffffffffffffffffffffffff1673ffffffffffffffffffffffffffffffffffffffff166370a08231306040518263ffffffff1660e01b81526004016101e491906107ce565b602060405180830381865afa158015610201573d6000803e3d6000fd5b505050506040513d601f19601f820116820180604052508101906102259190610904565b1015610266576040517f08c379a000000000000000000000000000000000000000000000000000000000815260040161025d9061097d565b60405180910390fd5b8060036000828254610278919061099d565b92505081905550600160009054906101000a900473ffffffffffffffffffffffffffffffffffffffff1673ffffffffffffffffffffffffffffffffffffffff1663a9059cbb33836040518363ffffffff1660e01b81526004016102dc9291906109f3565b6020604051808303816000875af11580156102fb573d6000803e3d6000fd5b505050506040513d601f19601f8201168201806040525081019061031f9190610a54565b61035e576040517f08c379a000000000000000000000000000000000000000000000000000000000815260040161035590610acd565b60405180910390fd5b7f5e5e995ce3133561afceaa51a9a154d5db228cd7525d34df5185582c18d3df09338260405161038f9291906109f3565b60405180910390a150565b60008054906101000a900473ffffffffffffffffffffffffffffffffffffffff1673ffffffffffffffffffffffffffffffffffffffff163373ffffffffffffffffffffffffffffffffffffffff1614610428576040517f08c379a000000000000000000000000000000000000000000000000000000000815260040161041f90610b39565b60405180910390fd5b600160009054906101000a900473ffffffffffffffffffffffffffffffffffffffff1673ffffffffffffffffffffffffffffffffffffffff1663a9059cbb60008054906101000a900473ffffffffffffffffffffffffffffffffffffffff16600160009054906101000a900473ffffffffffffffffffffffffffffffffffffffff1673ffffffffffffffffffffffffffffffffffffffff166370a08231306040518263ffffffff1660e01b81526004016104e291906107ce565b602060405180830381865afa1580156104ff573d6000803e3d6000fd5b505050506040513d601f19601f820116820180604052508101906105239190610904565b6040518363ffffffff1660e01b81526004016105409291906109f3565b6020604051808303816000875af115801561055f573d6000803e3d6000fd5b505050506040513d601f19601f820116820180604052508101906105839190610a54565b6105c2576040517f08c379a00000000000000000000000000000000000000000000000000000000081526004016105b990610acd565b60405180910390fd5b60008054906101000a900473ffffffffffffffffffffffffffffffffffffffff1673ffffffffffffffffffffffffffffffffffffffff166108fc479081150290604051600060405180830381858888f19350505050158015610628573d6000803e3d6000fd5b50565b60035481565b600160009054906101000a900473ffffffffffffffffffffffffffffffffffffffff1681565b60025481565b60008054906101000a900473ffffffffffffffffffffffffffffffffffffffff1681565b600080fd5b6000819050919050565b61069981610686565b81146106a457600080fd5b50565b6000813590506106b681610690565b92915050565b6000602082840312156106d2576106d1610681565b5b60006106e0848285016106a7565b91505092915050565b6106f281610686565b82525050565b600060208201905061070d60008301846106e9565b92915050565b600073ffffffffffffffffffffffffffffffffffffffff82169050919050565b6000819050919050565b600061075861075361074e84610713565b610733565b610713565b9050919050565b600061076a8261073d565b9050919050565b600061077c8261075f565b9050919050565b61078c81610771565b82525050565b60006020820190506107a76000830184610783565b92915050565b60006107b882610713565b9050919050565b6107c8816107ad565b82525050565b60006020820190506107e360008301846107bf565b92915050565b7f4e487b7100000000000000000000000000000000000000000000000000000000600052601160045260246000fd5b600061082382610686565b915061082e83610686565b9250817fffffffffffffffffffffffffffffffffffffffffffffffffffffffffffffffff0483118215151615610867576108666107e9565b5b828202905092915050565b600082825260208201905092915050565b7f496e636f72726563742045746865722076616c75650000000000000000000000600082015250565b60006108b9601583610872565b91506108c482610883565b602082019050919050565b600060208201905081810360008301526108e8816108ac565b9050919050565b6000815190506108fe81610690565b92915050565b60006020828403121561091a57610919610681565b5b6000610928848285016108ef565b91505092915050565b7f4e6f7420656e6f75676820746f6b656e7320617661696c61626c650000000000600082015250565b6000610967601b83610872565b915061097282610931565b602082019050919050565b600060208201905081810360008301526109968161095a565b9050919050565b60006109a882610686565b91506109b383610686565b9250827fffffffffffffffffffffffffffffffffffffffffffffffffffffffffffffffff038211156109e8576109e76107e9565b5b828201905092915050565b6000604082019050610a0860008301856107bf565b610a1560208301846106e9565b9392505050565b60008115159050919050565b610a3181610a1c565b8114610a3c57600080fd5b50565b600081519050610a4e81610a28565b92915050565b600060208284031215610a6a57610a69610681565b5b6000610a7884828501610a3f565b91505092915050565b7f5472616e73666572206661696c65640000000000000000000000000000000000600082015250565b6000610ab7600f83610872565b9150610ac282610a81565b602082019050919050565b60006020820190508181036000830152610ae681610aaa565b9050919050565b7f4f6e6c7920746865206f776e65722063616e20656e64207468652073616c6500600082015250565b6000610b23601f83610872565b9150610b2e82610aed565b602082019050919050565b60006020820190508181036000830152610b5281610b16565b905091905056fea2646970667358221220e508ea73b9e48b8ba20e3fbb151118cb54106fc96646e791eff7057b4e8741a164736f6c634300080d0033",
  "immutableReferences": {},
  "source": "// SPDX-License-Identifier: MIT\r\npragma solidity ^0.8.13;\r\n\r\nimport \"./MyToken.sol\";\r\n\r\ncontract TokenSale {\r\n    address public owner;\r\n    MyToken public tokenContract;\r\n    uint256 public tokenPrice;\r\n    uint256 public tokensSold;\r\n\r\n    event Sell(address _buyer, uint256 _amount);\r\n\r\n    constructor(MyToken _tokenContract, uint256 _tokenPrice) {\r\n        owner = msg.sender;\r\n        tokenContract = _tokenContract;\r\n        tokenPrice = _tokenPrice;\r\n    }\r\n\r\n    function buyTokens(uint256 _numberOfTokens) public payable {\r\n        require(msg.value == _numberOfTokens * tokenPrice, \"Incorrect Ether value\");\r\n        require(tokenContract.balanceOf(address(this)) >= _numberOfTokens, \"Not enough tokens available\");\r\n\r\n        tokensSold += _numberOfTokens;\r\n        require(tokenContract.transfer(msg.sender, _numberOfTokens), \"Transfer failed\");\r\n\r\n        emit Sell(msg.sender, _numberOfTokens);\r\n    }\r\n\r\n    function endSale() public {\r\n        require(msg.sender == owner, \"Only the owner can end the sale\");\r\n        require(tokenContract.transfer(owner, tokenContract.balanceOf(address(this))), \"Transfer failed\");\r\n\r\n        payable(owner).transfer(address(this).balance);\r\n    }\r\n}",
  "sourcePath": "E:\\blockchain-assessment\\contracts\\TokenSale.sol",
  "compiler": {
    "name": "solc",
    "version": "0.8.13+commit.abaa5c0e.Emscripten.clang"
  },
  "schemaVersion": "3.4.16",
  "updatedAt": "2024-07-18T07:20:45.503Z",
  "networkType": "ethereum",
  "devdoc": {
    "kind": "dev",
    "methods": {},
    "version": 1
  },
  "userdoc": {
    "kind": "user",
    "methods": {},
    "version": 1
  }
}